:100000000C945D000C9485000C9485000C94850084
:100010000C9485000C9485000C9485000C9485004C
:100020000C9485000C9485000C9485000C9485003C
:100030000C9485000C9485000C9485000C9485002C
:100040000C94DA020C9485000C9485000C948500C5
:100050000C9485000C9485000C9485000C9485000C
:100060000C9485000C94850000000008000201003B
:100070000003040700000000000000000000000072
:10008000250028002B0000000000240027002A0083
:10009000040404040404040402020202020203032E
:1000A0000303030301020408102040800102040836
:1000B0001020010204081020A80411241FBECFEF55
:1000C000D8E0DEBFCDBF11E0A0E0B1E0EAE4FAE0A5
:1000D00002C005900D92AA31B107D9F721E0AAE13B
:1000E000B1E001C01D92AB33B207E1F710E0CDE5FE
:1000F000D0E004C02197FE010E941D05CC35D10738
:10010000C9F70E9424030C9423050C94000090E08E
:10011000FC01EC55FF4F249180579F4FFC018491C7
:10012000882399F090E0880F991FFC01EA57FF4F50
:10013000A591B491FC01E458FF4F859194918FB73C
:10014000F894EC91E22BEC938FBF0895AF92BF929D
:10015000CF92DF92EF92FF920F931F93CF93DF9393
:100160006C017B018B01040F151FEB015E01AE18C2
:10017000BF08C017D10759F06991D601ED91FC91E4
:100180000190F081E02DC6010995892B79F7C50111
:10019000DF91CF911F910F91FF90EF90DF90CF9063
:1001A000BF90AF90089590E0FC01E859FF4F249173
:1001B000FC01EC55FF4F3491FC01E057FF4FE491F7
:1001C000EE23C9F0222339F0233001F1A8F42130C5
:1001D00019F1223029F1F0E0EE0FFF1FE458FF4F34
:1001E000A591B4918FB7F894EC91611126C0309528
:1001F0003E233C938FBF08952730A9F02830C9F0E3
:10020000243049F7809180008F7D03C08091800069
:100210008F7780938000DFCF84B58F7784BDDBCF6D
:1002200084B58F7DFBCF8091B0008F778093B00035
:10023000D2CF8091B0008F7DF9CF3E2BDACF3FB780
:10024000F89480911F0190912001A0912101B0911B
:10025000220126B5A89B05C02F3F19F00196A11DCC
:10026000B11D3FBFBA2FA92F982F8827BC01CD0100
:10027000620F711D811D911D42E0660F771F881F5F
:10028000991F4A95D1F70895089590E080E0089568
:100290008F929F92AF92BF920F931F93CF93DF9352
:1002A000CDB7DEB7A1970FB6F894DEBF0FBECDBFB6
:1002B00019A2423008F44AE08E010F5D1F4F842ED0
:1002C000912CB12CA12CA50194010E94E504E62FEC
:1002D000B901CA01EA3044F5E05DD801EE938D0121
:1002E000232B242B252B79F790E080E0109769F0E1
:1002F000FD0101900020E9F73197AF014A1B5B0B2C
:10030000BD0183E291E00E94A600A1960FB6F89489
:10031000DEBF0FBECDBFDF91CF911F910F91BF9078
:10032000AF909F908F900895E95CD7CFCF93DF93E4
:10033000EC0160E08E810E94D30061E08E810E941A
:10034000D30060E08E810E94D3008BE891E001979A
:10035000F1F7DF91CF910895CF92DF92EF92FF9264
:100360000F931F93CF93DF936C017C0187E0E80E1E
:10037000F11CD0E0C0E0062F10E0B8010C2E02C046
:10038000759567950A94E2F76170F70181917F0195
:100390000E94D3002196C430D10579F7C601DF91C0
:1003A000CF911F910F91FF90EF90DF90CF900C9421
:1003B0009601CF92DF92EF92FF920F931F93CF930C
:1003C000DF93EC01F62E642F8C810E94D3008D8187
:1003D0008F3F19F060E00E94D3000F2D10E08F8551
:1003E00084FF25C06E0187E0C80ED11CF12CE12CE2
:1003F000B8010E2C02C0759567950A94E2F76170FA
:10040000F60181916F010E94D300FFEFEF1AFF0AFE
:1004100088E0E816F10461F7CE01DF91CF911F91DA
:100420000F91FF90EF90DF90CF900C949601B80160
:1004300084E0759567958A95E1F7CE010E94AC013D
:100440006F2DCE01DF91CF911F910F91FF90EF9013
:10045000DF90CF900C94AC0140E0682F83E291E0F4
:100460000C94D901CF93DF93823029F4909132011B
:10047000986090933201809336011092370180E4A6
:100480008093380180E18093390180E580933A01BF
:10049000809127010E948700809128018F3F11F0F1
:1004A0000E948700809129010E948700C3E2D1E069
:1004B0009E01235231408091320184FD0AC084E0C4
:1004C00090E02196281739073CF48E810E9487001E
:1004D000EFCF88E090E0F5CF8BE39DE00197F1F757
:1004E00060E0809127010E94D30060E080912901A3
:1004F0000E94D300809128018F3F19F060E00E9494
:10050000D3008091320184FD39C063E083E291E041
:100510000E94AC01CBE4D6E4CE010197F1F763E091
:1005200083E291E00E94AC012197F1F763E083E25E
:1005300091E00E94AC0183E592E00197F1F762E05F
:1005400083E291E00E94AC018091320180620E94BE
:100550002C0284E0809333018CE00E942C0281E025
:100560000E942C028BE39FE10197F1F782E08093D8
:10057000340186E0DF91CF910C942C0280620E94BE
:100580002C028BE496E40197F1F7809132018062AE
:100590000E942C0283E592E00197F1F780913201ED
:1005A00080620E942C02D0CF41E00E94D90181E0FC
:1005B00090E008951F920F920FB60F9211242F937F
:1005C0003F938F939F93AF93BF9380911B01909123
:1005D0001C01A0911D01B0911E0130911A0123E070
:1005E000230F2D3758F50196A11DB11D20931A0137
:1005F00080931B0190931C01A0931D01B0931E01D9
:1006000080911F0190912001A0912101B0912201C0
:100610000196A11DB11D80931F0190932001A0930D
:100620002101B0932201BF91AF919F918F913F9192
:100630002F910F900FBE0F901F90189526E8230F53
:100640000296A11DB11DD2CF789484B5826084BD7D
:1006500084B5816084BD85B5826085BD85B58160C6
:1006600085BD80916E00816080936E001092810044
:1006700080918100826080938100809181008160FF
:1006800080938100809180008160809380008091C0
:10069000B10084608093B1008091B000816080934C
:1006A000B00080917A00846080937A0080917A0013
:1006B000826080937A0080917A00816080937A00D2
:1006C00080917A00806880937A001092C10082E065
:1006D0000E94320280E00E94870081E00E94870031
:1006E00082E00E94870083E00E94870084E00E94ED
:1006F000870085E00E94870086E00E94870087E0EF
:100700000E94870044244A9493E0592E612C712C56
:100710002BE3222E2FE1322E00E010E020E4209384
:100720007C0080917A00806480937A0080917A00C6
:1007300086FDFCCF80917800C0917900DC2FC82F16
:100740002FEF30E0DE010E941605A30192010E9406
:10075000C60469017A01E1E0809136018111E0E08F
:10076000E195F0E0ED5DFE4F848980680E942C02E7
:100770004CE050E06CE071E083E291E00E94A60062
:10078000E0913601E23008F082C0E150F0E0ED5D2A
:10079000FE4F848980680E942C024AE0C701B6019E
:1007A000F7FE0EC041E06DE283E291E00E94D901C4
:1007B00066277727CB016C197D098E099F094AE0CE
:1007C0000E9448010E941F014B015C018AE0C82E73
:1007D000D12CE12CF12C0E941F01681979098A099A
:1007E0009B09683E734081059105A8F381E0C81A12
:1007F000D108E108F10828EE820E23E0921EA11C28
:10080000B11CC114D104E104F10429F781E00E9474
:100810002C02C1010197F1F72097D9F560E081E042
:100820000E94D30060E082E00E94D30060E083E099
:100830000E94D30060E084E00E94D30060E085E085
:100840000E94D30060E086E00E94D30060E087E071
:100850000E94D30060E086E00E94D30060E085E063
:100860000E94D30060E084E00E94D30060E083E057
:100870000E94D30060E082E00E94D30060E081E04B
:100880000E94D30060E080E00E94D30057C0E1E006
:100890007DCF1C161D060CF058C061E087E00E9459
:1008A000D300C132D10574F161E086E00E94D3002B
:1008B000C134D1053CF161E085E00E94D300C1362E
:1008C000D10504F161E084E00E94D300C138D10574
:1008D000CCF061E083E00E94D300C13AD10594F0EE
:1008E00061E082E00E94D300C13CD1055CF061E090
:1008F00081E00E94D300C13ED10524F061E080E098
:100900000E94D300C032D1050CF4A4CFC034D1056D
:100910000CF4A4CFC036D1050CF4A4CFC038D10557
:100920000CF4A4CFC03AD1050CF4A4CFC03CD1053F
:100930000CF4A4CFC03ED1050CF4A4CF01151105D1
:1009400009F4ECCE0E940000E9CED7FFDBCF7ECFCA
:10095000E3E2F1E01382128284E091E091838083EC
:100960008DE084838FEF85838CE086838BE08783A3
:100970008AE0808789E0818788E0828713861486F1
:1009800015861686178681E00C943202052E97FB99
:100990001EF400940E94DD0457FD07D00E94E50478
:1009A00007FC03D04EF40C94DD045095409530952F
:1009B00021953F4F4F4F5F4F0895909580957095CB
:1009C00061957F4F8F4F9F4F0895A1E21A2EAA1B6A
:1009D000BB1BFD010DC0AA1FBB1FEE1FFF1FA217EF
:1009E000B307E407F50720F0A21BB30BE40BF50BEC
:1009F000661F771F881F991F1A9469F76095709575
:100A0000809590959B01AC01BD01CF010895A29FF7
:100A1000B001B39FC001A39F700D811D1124911DD2
:100A2000B29F700D811D1124911D08950E9407052C
:100A3000B7FF0895821B930B0895EE0FFF1F0590DB
:0A0A4000F491E02D0994F894FFCF23
:100A4A0000000000D402A6004501440141444320AD
:0A0A5A0076616C7565203D200000F8
:00000001FF
