:100000000C945D000C947A000C947A000C947A00A5
:100010000C947A000C947A000C947A000C947A0078
:100020000C947A000C947A000C947A000C947A0068
:100030000C947A000C947A000C947A000C947A0058
:100040000C94F7010C947A000C947A000C947A00CA
:100050000C947A000C947A000C947A000C947A0038
:100060000C947A000C947A00000000080002010051
:100070000003040700000000000000000000000072
:10008000250028002B0000000000240027002A0083
:10009000040404040404040402020202020203032E
:1000A0000303030301020408102040800102040836
:1000B0001020010204081020770311241FBECFEF87
:1000C000D8E0DEBFCDBF21E0A0E0B1E001C01D92CD
:1000D000A532B207E1F710E0CDE5D0E004C02197EA
:1000E000FE010E94DF03CC35D107C9F70E9441020F
:1000F0000C941B040C94000090E0FC01EC55FF4FA5
:10010000249180579F4FFC018491882399F090E0BF
:10011000880F991FFC01EA57FF4FA591B491FC018C
:10012000E458FF4F859194918FB7F894EC91E22BAE
:10013000EC938FBF089590E0FC01E859FF4F2491A4
:10014000FC01EC55FF4F3491FC01E057FF4FE49167
:10015000EE23C9F0222339F0233001F1A8F4213035
:1001600019F1223029F1F0E0EE0FFF1FE458FF4FA4
:10017000A591B4918FB7F894EC91611126C0309598
:100180003E233C938FBF08952730A9F02830C9F053
:10019000243049F7809180008F7D03C080918000DA
:1001A0008F7780938000DFCF84B58F7784BDDBCFDE
:1001B00084B58F7DFBCF8091B0008F778093B000A6
:1001C000D2CF8091B0008F7DF9CF3E2BDACFCF9385
:1001D000DF93EC018091130190911401029749F48F
:1001E000C130D10509F43BC06CF560E0209709F4FB
:1001F00037C08091130190911401049749F4C130E4
:10020000D10509F45CC00CF037C0209709F442C056
:100210008091130190911401059709F0E5C0CA304F
:10022000D10508F0E1C0FE01E85EFE4F0C94DF034B
:10023000770183019401AA01C501C701CE01DA014A
:10024000EB01F201C230D105A9F060E0C330D10565
:1002500081F6809117010E949B0060E006C061E07A
:10026000809117010E949B0061E0809119010E941A
:100270009B00BFCF61E0EDCFC230D10539F1C33073
:10028000D10509F0C5CF61E0809117010E949B0064
:1002900060E022C061E0809117010E949B0060E055
:1002A000809119010E949B0061E080911B010E94D6
:1002B0009B0060E080911D010E949B00A9CF60E03F
:1002C000809117010E949B0061E0EACF60E080917D
:1002D00017010E949B0061E0809119010E949B0020
:1002E00060E080911B010E949B0061E0E3CF60E031
:1002F000809117010E949B0061E0809119010E948A
:100300009B0061E00BC060E0809117010E949B00A0
:1003100061E0809119010E949B0060E080911B01C7
:100320000E949B0060E010C060E0809117010E9475
:100330009B0061E0809119010E949B0060E0809128
:100340001B010E949B0061E080911D010E949B00A7
:1003500061E015C060E0809117010E949B0061E0A0
:10036000809119010E949B0060E080911B010E9416
:100370009B0061E080911D010E949B0060E08091E4
:100380001F01DF91CF910C949B0061E0E4CF61E00D
:10039000809117010E949B0060E0E2CF61E08091B4
:1003A00017010E949B0060E0809119010E949B0050
:1003B00061E0DBCF61E0809117010E949B0060E06B
:1003C000809119010E949B0061E080911B010E94B5
:1003D0009B0060E0CFCF61E0809117010E949B00FD
:1003E00060E08BCF60E0F8CFDF91CF9108951F924E
:1003F0000F920FB60F9211242F933F938F939F93D9
:10040000AF93BF938091010190910201A0910301EC
:10041000B09104013091000123E0230F2D3758F5EE
:100420000196A11DB11D20930001809301019093BD
:100430000201A0930301B093040180910501909102
:100440000601A0910701B09108010196A11DB11DFF
:100450008093050190930601A0930701B0930801D2
:10046000BF91AF919F918F913F912F910F900FBEB0
:100470000F901F90189526E8230F0296A11DB11D1D
:10048000D2CF789484B5826084BD84B5816084BD08
:1004900085B5826085BD85B5816085BD80916E0022
:1004A000816080936E001092810080918100826053
:1004B0008093810080918100816080938100809190
:1004C00080008160809380008091B100846080937F
:1004D000B1008091B00081608093B00080917A007B
:1004E000846080937A0080917A00826080937A00A1
:1004F00080917A00816080937A0080917A00806890
:1005000080937A001092C100209111013091120164
:10051000032E000C440B550B60E077E883E993E071
:100520000E94C003CA01B90124E630E040E050E077
:100530000E94C00320930D0130930E0140930F01E0
:100540005093100150E4752E64E0E62EF12C7AE011
:10055000C72ED12CE0E08E2EE0E09E2EAA24A3949C
:10056000B12C70927C0080917A00806480937A0034
:1005700080917A0086FDFCCF80917800009179000F
:10058000102F082F8091090190910A019801281BD2
:10059000390BC901E90137FF04C0CC27DD27C21B95
:1005A000D30B181619060CF07BC0B0920C01A09268
:1005B0000B01209709F490C03FB7F8948091050192
:1005C00090910601A0910701B091080126B5A89B62
:1005D00005C02F3F19F00196A11DB11D3FBFBA2FD5
:1005E000A92F982F8827820F911DA11DB11D42E0D0
:1005F000880F991FAA1FBB1F4A95D1F7409121016F
:100600005091220160912301709124011C012D0160
:10061000241A350A460A570A40910D0150910E01DD
:1006200060910F0170911001241635064606570699
:1006300008F4BFCF8093210190932201A09323015E
:10064000B0932401809115019091160120910B0126
:1006500030910C012130310559F501969093160126
:100660008093150120911101309112018217930797
:1006700021F4109216011092150121978091150115
:10068000909116012091130130911401B60125308B
:10069000310509F0B7010E94AC030E94E70089CF41
:1006A000892B09F486CF10920C0110920B0181CF97
:1006B000892B41F4809111019091120190931601C0
:1006C00080931501809115019091160101979093E7
:1006D000160180931501D1CF10930A0100930901EF
:1006E0008114910409F43DCF0E9400003ACFCF93CA
:1006F000DF93CBE0D1E01B861A86198218821E8A0E
:100700001F8A188E198E84E690E09F838E8388E07E
:1007100090E09D878C8789E090E09F878E878AE0B4
:1007200090E0998B888B8BE090E09B8B8A8B88E0A4
:100730000E947C008E850E947C0088890E947C003B
:100740008A890E947C001D8A1C8A84E090E0998737
:100750008887DF91CF91089597FB072E16F40094B8
:1007600007D077FD09D00E94E50307FC05D03EF4D1
:10077000909581959F4F0895709561957F4F08954D
:10078000052E97FB1EF400940E94D70357FD07D057
:100790000E94F90307FC03D04EF40C94D703509544
:1007A0004095309521953F4F4F4F5F4F089590955D
:1007B0008095709561957F4F8F4F9F4F0895EE0FF5
:1007C000FF1F0590F491E02D0994AA1BBB1B51E17A
:1007D00007C0AA1FBB1FA617B70710F0A61BB70BB1
:1007E000881F991F5A95A9F780959095BC01CD0156
:1007F0000895A1E21A2EAA1BBB1BFD010DC0AA1F62
:10080000BB1FEE1FFF1FA217B307E407F50720F079
:10081000A21BB30BE40BF50B661F771F881F991FF4
:100820001A9469F760957095809590959B01AC013D
:0A083000BD01CF010895F894FFCF39
:00000001FF
