:100000000C945D000C9485000C9485000C94850084
:100010000C9485000C9485000C9485000C9485004C
:100020000C9485000C9485000C9485000C94680257
:100030000C9485000C9485000C9485000C9485002C
:100040000C941E020C9485000C9485000C94850081
:100050000C9485000C9485000C9485000C9485000C
:100060000C9485000C9485000000000024002700FB
:100070002A0000000000250028002B0004040404CE
:100080000404040402020202020203030303030342
:10009000010204081020408001020408102001021F
:1000A00004081020000000080002010000030407FB
:1000B0000000000000000000070411241FBECFEF65
:1000C000D8E0DEBFCDBF11E0A0E0B1E0ECE1F9E0A7
:1000D00002C005900D92A030B107D9F721E0A0E051
:1000E000B1E001C01D92AD33B207E1F710E0CDE5FC
:1000F000D0E004C02197FE010E948604CC35D107D0
:10010000C9F70E943F030C948C040C94000090E00B
:10011000FC01EC55FF4F2491FC01E057FF4F349157
:10012000FC01E458FF4FE491EE23C9F0222339F09B
:10013000233001F1A8F4213019F1223029F1F0E047
:10014000EE0FFF1FEE58FF4FA591B4918FB7F894B3
:10015000EC91611126C030953E233C938FBF0895EA
:100160002730A9F02830C9F0243049F78091800069
:100170008F7D03C0809180008F7780938000DFCFD8
:1001800084B58F7784BDDBCF84B58F7DFBCF809125
:10019000B0008F778093B000D2CF8091B0008F7D78
:1001A000F9CF3E2BDACF3FB7F89480912B01909195
:1001B0002C01A0912D01B0912E0126B5A89B05C060
:1001C0002F3F19F00196A11DB11D3FBFBA2FA92FD6
:1001D000982F8827BC01CD01620F711D811D911DD3
:1001E00042E0660F771F881F991F4A95D1F708953F
:1001F0008F929F92AF92BF92CF92DF92EF92FF9237
:100200004B015C010E94D3006B017C010E94D30072
:100210006C197D098E099F09683E7340810591051F
:10022000A8F321E0821A9108A108B10888EEC80E4F
:1002300083E0D81EE11CF11C81149104A104B104D7
:1002400029F7FF90EF90DF90CF90BF90AF909F90F5
:100250008F900895CF92DF92EF92FF92CF93DF932A
:10026000EC01603282E07807CCF5653B710514F053
:1002700064EB70E0898128E830E0281B310987FDB4
:100280003395220F331F220F331F6901330FEE08FE
:10029000FF088A8128E532E0281B310987FD339564
:1002A000220F331F220F331F032E000C440B550B5C
:1002B0002C193D094E095F09DB0177FF02C0B0E050
:1002C000A0E00E94410424EB30E040E050E00E94B6
:1002D0001704C20ED31EE41EF51EB601E881EC30F1
:1002E00070F5298188E890E0821B910927FD93959C
:1002F000880F991F880F991F681779077CF02A814A
:1003000088E592E0821B910927FD9395880F991F3C
:10031000880F991F681779070CF4CB010297880F93
:10032000991F4FB7F8942E2F30E0F901EE0FFF1F01
:10033000E20FF31FEE5FFE4F928381834FBFDF9189
:10034000CF91FF90EF90DF90CF900895CF93DF9300
:10035000DC018C918C3008F06DC0CB01FB01E057C3
:10036000FF4F249184589F4FFC018491882399F07A
:1003700090E0880F991FFC01E859FF4FC591D49177
:10038000FC01EE58FF4F859194918FB7F894E88166
:10039000E22BE8838FBF8C91282F30E0F901EE0F1C
:1003A000FF1FE20FF31FEE5FFE4F962F9F736081DA
:1003B000607C692B608311961C92119712961C9297
:1003C00012972CE0622F0E947A04829FB0011124C0
:1003D00030E020E0AB01420F531FFA01EE0FFF1F88
:1003E000E40FF51FEE5FFE4F908196FD16C02F5F64
:1003F0003F4F2C30310571F781110FC010928000F2
:1004000082E0809381001092850010928400B19A5E
:1004100080916F00826080936F00EC918E2F90E04E
:10042000FC01EE0FFF1FE80FF91FEE5FFE4F80810A
:10043000806480838C91DF91CF9108951F920F92F9
:100440000FB60F9211242F933F938F939F93AF93E7
:10045000BF938091270190912801A0912901B0912B
:100460002A013091260123E0230F2D3758F50196FC
:10047000A11DB11D2093260180932701909328018F
:10048000A0932901B0932A0180912B0190912C0116
:10049000A0912D01B0912E010196A11DB11D809357
:1004A0002B0190932C01A0932D01B0932E01BF91AD
:1004B000AF919F918F913F912F910F900FBE0F9011
:1004C0001F90189526E8230F0296A11DB11DD2CFCB
:1004D0001F920F920FB60F9211242F933F934F93B9
:1004E0005F936F937F938F939F93AF93BF93CF93BC
:1004F000DF93EF93FF9380910001C0910101D0E061
:1005000087FF24C010928500109284008091000122
:100510008F5F8093000180910001082E000C990BE1
:100520008C179D0724F4809100018C30C4F18091D8
:10053000840090918500049680349C4908F47AC028
:100540008091840090918500049676C0809100018E
:10055000082E000C990B8C179D07C4F6E091000142
:100560008E2FEE0F990BFC01EE0FFF1FE80FF91F06
:10057000EE5FFE4F808186FFC9CFE09100018E2F94
:10058000EE0F990BFC01EE0FFF1FE80FF91FEE5F56
:10059000FE4F808160E08F730E948700B7CF20916B
:1005A000840030918500E09100018E2FEE0F990BB1
:1005B000FC01EE0FFF1FE80FF91FEE5FFE4F818178
:1005C0009281820F931F9093890080938800E0911D
:1005D00000018E2FEE0F990BFC01EE0FFF1FE80FAD
:1005E000F91FEE5FFE4F808186FF11C0E091000190
:1005F0008E2FEE0F990BFC01EE0FFF1FE80FF91F76
:10060000EE5FFE4F808161E08F730E948700FF9153
:10061000EF91DF91CF91BF91AF919F918F917F919A
:100620006F915F914F913F912F910F900FBE0F905F
:100630001F90189580E49CE990938900809388002E
:100640008FEF80930001E3CFFC01909101019C307A
:1006500098F481E0890F809301019083892F90E0C5
:10066000FC01EE0FFF1FE80FF91FEE5FFE4F88EB56
:100670009BE09283818308958FEF8083089578941F
:1006800084B5826084BD84B5816084BD85B5826097
:1006900085BD85B5816085BD80916E008160809348
:1006A0006E001092810080918100826080938100B1
:1006B00080918100816080938100809180008160C1
:1006C000809380008091B10084608093B10080911C
:1006D000B00081608093B00080917A008460809344
:1006E0007A0080917A00826080937A0080917A000B
:1006F000816080937A0080917A00806880937A008C
:100700001092C10069E070E088E391E00E94A601C8
:100710006AE070E085E391E00E94A6016BE070E082
:1007200082E391E00E94A6016CE070E08FE291E02C
:100730000E94A60104EB10E080E0E82E80E0F82E95
:1007400010923C0110923B01C0913B01D0913C01C1
:10075000C53BD10534F5BE0188E391E00E942A0132
:10076000BE0185E391E00E942A016CE370E080E025
:1007700090E00E94F800BE0182E391E00E942A010D
:10078000BE018FE291E00E942A0169E170E080E001
:1007900090E00E94F8002196D0933C01C0933B0169
:1007A000D3CF10933C0100933B01C0913B01D0910A
:1007B0003C01BE01D7FD15C088E391E00E942A01EB
:1007C000BE0185E391E00E942A016CE370E080E0C5
:1007D00090E00E94F8002197D0933C01C0933B0128
:1007E000E4CF82E391E00E942A01BE018FE291E012
:1007F0000E942A0169E170E080E090E00E94F80028
:10080000E114F10409F49CCF0E94000099CF88E321
:1008100091E00E94240385E391E00E94240382E397
:1008200091E00E9424038FE291E00C942403052EB2
:1008300097FB1EF400940E942E0457FD07D00E94DF
:10084000490407FC03D04EF40C942E0450954095B7
:10085000309521953F4F4F4F5F4F0895909580956C
:10086000709561957F4F8F4F9F4F08950E946B0445
:10087000A59F900DB49F900DA49F800D911D1124F4
:100880000895B7FF0C9436040E943604821B930B24
:100890000895A1E21A2EAA1BBB1BFD010DC0AA1FC1
:1008A000BB1FEE1FFF1FA217B307E407F50720F0D9
:1008B000A21BB30BE40BF50B661F771F881F991F54
:1008C0001A9469F760957095809590959B01AC019D
:1008D000BD01CF010895A29FB001B39FC001A39FA6
:1008E000700D811D1124911DB29F700D811D112469
:1008F000911D0895991B79E004C0991F961708F07F
:10090000961B881F7A95C9F780950895EE0FFF1FF3
:0C0910000590F491E02D0994F894FFCFBD
:00000001FF
